:020000008B284B
:0E0006008312031321088A00200882000800DC
:1000140083120313FB01FA01F9018030F800F10C9B
:10002400F00C031C1E287408F90775080318750FD3
:10003400FA070318FB0A0310F01F26287408FA07AE
:1000440075080318750FFB07FB0CFA0CF90CF80C78
:10005400031C11287B08F3007A08F2007908F100E8
:060064007808F00008001E
:0C006A008312031395011712971208006F
:10007600831603131208013EF000F1010318F10A7A
:1000860083122208F400F5010A200630F2007008F7
:10009600F4007108F500720803195628F50CF40CE3
:1000A600F513FF3E4F280430F1007408F000710884
:1000B60003196128F00D7010FF3E5B2883120313AD
:1000C60030307005F3007408F0007508F100F10C8B
:1000D600F00CF113F10CF00CF113700895000F30D1
:0800E600970573089704080058
:1000EE0003208A110A128000840AA00A0319A10AA9
:0800FE00F003031D7728080040
:10010600831603130711831212150C309704080087
:10011600831603138601FF3088008312121492148B
:100126007C308316920035206430A2003B20860185
:10013600081CA02801308600A728881CA628832032
:0C01460002308600A72886019B28A8280C
:02400E004A2F37
:00000001FF
